:020000040800F2
:10000000600600206D0100087501000877010008F6
:10001000790100087B0100087D0100080000000054
:100020000000000000000000000000007F01000848
:10003000810100080000000083010008850100081C
:100040008701000887010008870100088701000870
:100050008701000887010008870100088701000860
:100060008701000887010008870100088701000850
:100070008701000887010008870100088701000840
:100080008701000887010008870100088701000830
:100090008701000887010008870100088701000820
:1000A0008701000887010008870100088701000810
:1000B0008701000887010008870100088701000800
:1000C00087010008870100088701000887010008F0
:1000D00087010008870100088701000887010008E0
:1000E00087010008870100088701000800F002F876
:1000F00000F02CF80AA090E8000C82448344AAF196
:100100000107DA4501D100F021F8AFF2090EBAE893
:100110000F0013F0010F18BFFB1A43F0010318473B
:100120002C0400003C0400000023002400250026CD
:10013000103A28BF78C1FBD8520728BF30C148BF4A
:100140000B6070471FB51FBD10B510BD00F031F832
:100150001146FFF7F7FF00F095F900F04FF803B4F0
:10016000FFF7F2FF03BC00F057F800000948804792
:1001700009480047FEE7FEE7FEE7FEE7FEE7FEE789
:10018000FEE7FEE7FEE7FEE704480549054A064BA1
:10019000704700001D040008ED000008600000200A
:1001A0006006002060020020600200207047704757
:1001B0007047754600F02CF8AE4605006946534678
:1001C00020F00700854618B020B5FFF7DDFFBDE839
:1001D00020404FF000064FF000074FF000084FF0AE
:1001E000000BAC46ACE8C009ACE8C009ACE8C009FB
:1001F000ACE8C00921F007018D46704710B50446F0
:10020000AFF300802046BDE81040FFF7A8BF000014
:10021000004870470000002001491820ABBEFEE7EF
:10022000260002007047000041F20001C4F2020102
:10023000086840F480300860FFE741F20000C4F233
:10024000020000688003002801D4FFE7F5E741F2CF
:100250000401C4F20201086820F47C1008600868F8
:1002600040F4E810086041F20001C4F2020108689D
:1002700040F080700860FFE741F20000C4F2020025
:1002800000688001002801D4FFE7F5E741F204018E
:10029000C4F20201086843F6F372904308600868EC
:1002A00040F2024210430860FFE741F20400C4F24A
:1002B0000200006800F00C00082801D0FFE7F4E716
:1002C0007047000080B500F001F880BD84B00020C8
:1002D0000390029041F20001C4F20201086840F468
:1002E00080300860FFE741F20000C4F202000068BD
:1002F00000F400300290039801300390FFE7029968
:100300000020019039B9FFE70398B0F5A06018BF4D
:1003100001200190FFE70198C0070028E3D1FFE723
:1003200041F20000C4F2020000688003002803D5F7
:10033000FFE70120029002E000200290FFE7029810
:10034000012851D1FFE742F20001C4F2020108681E
:1003500040F010000860086820F007000860086896
:1003600040F00200086041F20401C4F20201009171
:100370000868086008680860086840F480600860E1
:10038000086820F47C100860086840F4E8100860F1
:1003900041F20001C4F20201086840F08070086078
:1003A000FFE741F20000C4F202000068800100286B
:1003B00001D4FFE7F5E741F20401C4F20201086845
:1003C00020F003000860086840F002000860FFE7C2
:1003D00041F20400C4F20200006800F00C0008289A
:1003E00001D0FFE7F4E700E0FFE704B0704700004A
:1003F0004EF21001CEF20001002008604EF214030C
:10040000CEF200036FF07F421A604EF21802CEF275
:1004100000021060052008607047000080B541F2BE
:100420000002C4F20202106840F00100106041F2C4
:100430000401C4F2020108680023CFF6FF0318404C
:10044000086010684FF6FF73CFF6F663184010602F
:10045000106820F480201060086820F4FE00086016
:1004600041F20801C4F202014FF41F000860FFF7D7
:1004700029FF4EF60851CEF200014FF000600860EF
:1004800080BD000080B584B0002000900390FFF78D
:10049000CBFEFFF7ADFF009841F21802C4F2020252
:1004A000116841F01C01116040F60002C4F2010223
:1004B000116840F6FF7399431160116841F008011B
:1004C000116041F20402C4F20102116821F07F615F
:1004D0001160116841F08871116040F60043C4F268
:1004E000010319686FF31F31196040F60442C4F22A
:1004F0000102116821F00F011160196841F2000C2E
:10050000C1F2111C41EA0C011960116841F00101AE
:1005100011600290FFE740F60800C4F20100006895
:10052000C00748B1FFE740F60C41C4F2010108687A
:1005300000F02000086008E040F61441C4F2010118
:10054000086800F020000860FFE7E4E75C050008A9
:0C055000000000206006000028010008E8
:040000050800016D81
:00000001FF
